{
  "abi": [
    {
      "inputs": [],
      "stateMutability": "nonpayable",
      "type": "constructor"
    },
    {
      "inputs": [
        {
          "internalType": "address",
          "name": "_newOwner",
          "type": "address"
        }
      ],
      "name": "changeOwner",
      "outputs": [],
      "stateMutability": "nonpayable",
      "type": "function"
    },
    {
      "inputs": [],
      "name": "owner",
      "outputs": [
        {
          "internalType": "address",
          "name": "",
          "type": "address"
        }
      ],
      "stateMutability": "view",
      "type": "function"
    },
    {
      "inputs": [],
      "name": "testAssert",
      "outputs": [],
      "stateMutability": "view",
      "type": "function"
    },
    {
      "inputs": [],
      "name": "viewOwner",
      "outputs": [
        {
          "internalType": "address",
          "name": "",
          "type": "address"
        }
      ],
      "stateMutability": "view",
      "type": "function"
    }
  ],
  "bytecode": {
    "object": "0x608060405234801561001057600080fd5b50600080546001600160a01b031916331790556101fb806100326000396000f3fe608060405234801561001057600080fd5b506004361061004c5760003560e01c80632b813bc0146100515780638da5cb5b1461005b578063a6f9dae11461008a578063bc677b461461009d575b600080fd5b6100596100a5565b005b60005461006e906001600160a01b031681565b6040516001600160a01b03909116815260200160405180910390f35b61005961009836600461017f565b6100b7565b61006e610124565b600154156100b5576100b56101af565b565b6000546001600160a01b031633146101025760405162461bcd60e51b81526020600482015260096024820152682737ba1027bbb732b960b91b60448201526064015b60405180910390fd5b600080546001600160a01b0319166001600160a01b0392909216919091179055565b600080546001600160a01b0316331461016f5760405162461bcd60e51b815260206004820152600d60248201526c2737ba103a34329037bbb732b960991b60448201526064016100f9565b506000546001600160a01b031690565b60006020828403121561019157600080fd5b81356001600160a01b03811681146101a857600080fd5b9392505050565b634e487b7160e01b600052600160045260246000fdfea26469706673582212200652c059e669944fba82de00c896b433f463dad8ff19c97e46d085186c04c48a64736f6c63430008150033",
    "linkReferences": {}
  },
  "methodIdentifiers": {
    "changeOwner(address)": "a6f9dae1",
    "owner()": "8da5cb5b",
    "testAssert()": "2b813bc0",
    "viewOwner()": "bc677b46"
  },
  "id": 0
}